{
  "_format": "hh-sol-artifact-1",
  "contractName": "MuVault",
  "sourceName": "contracts/MuVault.sol",
  "abi": [
    {
      "inputs": [],
      "stateMutability": "nonpayable",
      "type": "constructor"
    },
    {
      "anonymous": false,
      "inputs": [
        {
          "indexed": true,
          "internalType": "uint256",
          "name": "txIndex",
          "type": "uint256"
        },
        {
          "indexed": true,
          "internalType": "address",
          "name": "from",
          "type": "address"
        },
        {
          "indexed": true,
          "internalType": "address",
          "name": "to",
          "type": "address"
        },
        {
          "indexed": false,
          "internalType": "uint256",
          "name": "value",
          "type": "uint256"
        }
      ],
      "name": "ConfirmAndExecuteWithdraw",
      "type": "event"
    },
    {
      "anonymous": false,
      "inputs": [
        {
          "indexed": true,
          "internalType": "uint256",
          "name": "txIndex",
          "type": "uint256"
        },
        {
          "indexed": true,
          "internalType": "address",
          "name": "from",
          "type": "address"
        }
      ],
      "name": "ConfirmWithdraw",
      "type": "event"
    },
    {
      "anonymous": false,
      "inputs": [
        {
          "indexed": true,
          "internalType": "address",
          "name": "sender",
          "type": "address"
        },
        {
          "indexed": false,
          "internalType": "uint256",
          "name": "amount",
          "type": "uint256"
        },
        {
          "indexed": false,
          "internalType": "uint256",
          "name": "balance",
          "type": "uint256"
        }
      ],
      "name": "Deposit",
      "type": "event"
    },
    {
      "anonymous": false,
      "inputs": [
        {
          "indexed": true,
          "internalType": "uint256",
          "name": "txIndex",
          "type": "uint256"
        },
        {
          "indexed": true,
          "internalType": "address",
          "name": "from",
          "type": "address"
        },
        {
          "indexed": true,
          "internalType": "address",
          "name": "to",
          "type": "address"
        },
        {
          "indexed": false,
          "internalType": "uint256",
          "name": "value",
          "type": "uint256"
        }
      ],
      "name": "ExecuteWithdraw",
      "type": "event"
    },
    {
      "anonymous": false,
      "inputs": [
        {
          "indexed": true,
          "internalType": "uint256",
          "name": "txIndex",
          "type": "uint256"
        },
        {
          "indexed": true,
          "internalType": "address",
          "name": "from",
          "type": "address"
        },
        {
          "indexed": true,
          "internalType": "address",
          "name": "to",
          "type": "address"
        },
        {
          "indexed": false,
          "internalType": "uint256",
          "name": "value",
          "type": "uint256"
        }
      ],
      "name": "RequestAndConfirmWithdraw",
      "type": "event"
    },
    {
      "anonymous": false,
      "inputs": [
        {
          "indexed": true,
          "internalType": "uint256",
          "name": "txIndex",
          "type": "uint256"
        },
        {
          "indexed": true,
          "internalType": "address",
          "name": "from",
          "type": "address"
        },
        {
          "indexed": true,
          "internalType": "address",
          "name": "to",
          "type": "address"
        },
        {
          "indexed": false,
          "internalType": "uint256",
          "name": "value",
          "type": "uint256"
        }
      ],
      "name": "RequestWithdraw",
      "type": "event"
    },
    {
      "anonymous": false,
      "inputs": [
        {
          "indexed": true,
          "internalType": "bytes32",
          "name": "role",
          "type": "bytes32"
        },
        {
          "indexed": true,
          "internalType": "bytes32",
          "name": "previousAdminRole",
          "type": "bytes32"
        },
        {
          "indexed": true,
          "internalType": "bytes32",
          "name": "newAdminRole",
          "type": "bytes32"
        }
      ],
      "name": "RoleAdminChanged",
      "type": "event"
    },
    {
      "anonymous": false,
      "inputs": [
        {
          "indexed": true,
          "internalType": "bytes32",
          "name": "role",
          "type": "bytes32"
        },
        {
          "indexed": true,
          "internalType": "address",
          "name": "account",
          "type": "address"
        },
        {
          "indexed": true,
          "internalType": "address",
          "name": "sender",
          "type": "address"
        }
      ],
      "name": "RoleGranted",
      "type": "event"
    },
    {
      "anonymous": false,
      "inputs": [
        {
          "indexed": true,
          "internalType": "bytes32",
          "name": "role",
          "type": "bytes32"
        },
        {
          "indexed": true,
          "internalType": "address",
          "name": "account",
          "type": "address"
        },
        {
          "indexed": true,
          "internalType": "address",
          "name": "sender",
          "type": "address"
        }
      ],
      "name": "RoleRevoked",
      "type": "event"
    },
    {
      "inputs": [],
      "name": "DEFAULT_ADMIN_ROLE",
      "outputs": [
        {
          "internalType": "bytes32",
          "name": "",
          "type": "bytes32"
        }
      ],
      "stateMutability": "view",
      "type": "function"
    },
    {
      "inputs": [
        {
          "internalType": "address",
          "name": "account",
          "type": "address"
        }
      ],
      "name": "addAdmin",
      "outputs": [],
      "stateMutability": "nonpayable",
      "type": "function"
    },
    {
      "inputs": [
        {
          "internalType": "address",
          "name": "from",
          "type": "address"
        },
        {
          "internalType": "uint256",
          "name": "txIndex",
          "type": "uint256"
        }
      ],
      "name": "confirmAndExecuteWithdraw",
      "outputs": [],
      "stateMutability": "nonpayable",
      "type": "function"
    },
    {
      "inputs": [
        {
          "internalType": "address",
          "name": "from",
          "type": "address"
        },
        {
          "internalType": "uint256",
          "name": "txIndex",
          "type": "uint256"
        }
      ],
      "name": "confirmWithdraw",
      "outputs": [],
      "stateMutability": "nonpayable",
      "type": "function"
    },
    {
      "inputs": [
        {
          "internalType": "address",
          "name": "user",
          "type": "address"
        },
        {
          "internalType": "address",
          "name": "insurance",
          "type": "address"
        },
        {
          "internalType": "address",
          "name": "operator",
          "type": "address"
        }
      ],
      "name": "createVault",
      "outputs": [],
      "stateMutability": "nonpayable",
      "type": "function"
    },
    {
      "inputs": [
        {
          "internalType": "address",
          "name": "from",
          "type": "address"
        },
        {
          "internalType": "uint256",
          "name": "txIndex",
          "type": "uint256"
        }
      ],
      "name": "executeWithdraw",
      "outputs": [],
      "stateMutability": "nonpayable",
      "type": "function"
    },
    {
      "inputs": [],
      "name": "getBalance",
      "outputs": [
        {
          "internalType": "uint256",
          "name": "",
          "type": "uint256"
        }
      ],
      "stateMutability": "view",
      "type": "function"
    },
    {
      "inputs": [
        {
          "internalType": "bytes32",
          "name": "role",
          "type": "bytes32"
        }
      ],
      "name": "getRoleAdmin",
      "outputs": [
        {
          "internalType": "bytes32",
          "name": "",
          "type": "bytes32"
        }
      ],
      "stateMutability": "view",
      "type": "function"
    },
    {
      "inputs": [
        {
          "internalType": "address",
          "name": "user",
          "type": "address"
        }
      ],
      "name": "getVault",
      "outputs": [
        {
          "components": [
            {
              "internalType": "address",
              "name": "user",
              "type": "address"
            },
            {
              "internalType": "address",
              "name": "insurance",
              "type": "address"
            },
            {
              "internalType": "address",
              "name": "operator",
              "type": "address"
            },
            {
              "internalType": "uint256",
              "name": "balance",
              "type": "uint256"
            }
          ],
          "internalType": "struct MuVault.Vault",
          "name": "",
          "type": "tuple"
        }
      ],
      "stateMutability": "view",
      "type": "function"
    },
    {
      "inputs": [
        {
          "internalType": "bytes32",
          "name": "role",
          "type": "bytes32"
        },
        {
          "internalType": "address",
          "name": "account",
          "type": "address"
        }
      ],
      "name": "grantRole",
      "outputs": [],
      "stateMutability": "nonpayable",
      "type": "function"
    },
    {
      "inputs": [
        {
          "internalType": "bytes32",
          "name": "role",
          "type": "bytes32"
        },
        {
          "internalType": "address",
          "name": "account",
          "type": "address"
        }
      ],
      "name": "hasRole",
      "outputs": [
        {
          "internalType": "bool",
          "name": "",
          "type": "bool"
        }
      ],
      "stateMutability": "view",
      "type": "function"
    },
    {
      "inputs": [],
      "name": "numConfirmationsRequired",
      "outputs": [
        {
          "internalType": "uint256",
          "name": "",
          "type": "uint256"
        }
      ],
      "stateMutability": "view",
      "type": "function"
    },
    {
      "inputs": [
        {
          "internalType": "address",
          "name": "account",
          "type": "address"
        }
      ],
      "name": "removeAdmin",
      "outputs": [],
      "stateMutability": "nonpayable",
      "type": "function"
    },
    {
      "inputs": [
        {
          "internalType": "address",
          "name": "user",
          "type": "address"
        }
      ],
      "name": "removeVault",
      "outputs": [],
      "stateMutability": "nonpayable",
      "type": "function"
    },
    {
      "inputs": [
        {
          "internalType": "bytes32",
          "name": "role",
          "type": "bytes32"
        },
        {
          "internalType": "address",
          "name": "account",
          "type": "address"
        }
      ],
      "name": "renounceRole",
      "outputs": [],
      "stateMutability": "nonpayable",
      "type": "function"
    },
    {
      "inputs": [
        {
          "internalType": "address",
          "name": "from",
          "type": "address"
        },
        {
          "internalType": "address",
          "name": "to",
          "type": "address"
        },
        {
          "internalType": "uint256",
          "name": "value",
          "type": "uint256"
        }
      ],
      "name": "requestAndConfirmWithdraw",
      "outputs": [],
      "stateMutability": "nonpayable",
      "type": "function"
    },
    {
      "inputs": [
        {
          "internalType": "address",
          "name": "from",
          "type": "address"
        },
        {
          "internalType": "address",
          "name": "to",
          "type": "address"
        },
        {
          "internalType": "uint256",
          "name": "value",
          "type": "uint256"
        }
      ],
      "name": "requestWithdraw",
      "outputs": [],
      "stateMutability": "nonpayable",
      "type": "function"
    },
    {
      "inputs": [
        {
          "internalType": "bytes32",
          "name": "role",
          "type": "bytes32"
        },
        {
          "internalType": "address",
          "name": "account",
          "type": "address"
        }
      ],
      "name": "revokeRole",
      "outputs": [],
      "stateMutability": "nonpayable",
      "type": "function"
    },
    {
      "inputs": [
        {
          "internalType": "bytes4",
          "name": "interfaceId",
          "type": "bytes4"
        }
      ],
      "name": "supportsInterface",
      "outputs": [
        {
          "internalType": "bool",
          "name": "",
          "type": "bool"
        }
      ],
      "stateMutability": "view",
      "type": "function"
    },
    {
      "inputs": [
        {
          "internalType": "address",
          "name": "",
          "type": "address"
        },
        {
          "internalType": "uint256",
          "name": "",
          "type": "uint256"
        }
      ],
      "name": "txList",
      "outputs": [
        {
          "internalType": "address",
          "name": "from",
          "type": "address"
        },
        {
          "internalType": "address",
          "name": "to",
          "type": "address"
        },
        {
          "internalType": "uint256",
          "name": "value",
          "type": "uint256"
        },
        {
          "internalType": "bool",
          "name": "executed",
          "type": "bool"
        },
        {
          "internalType": "uint256",
          "name": "numConfirmations",
          "type": "uint256"
        }
      ],
      "stateMutability": "view",
      "type": "function"
    },
    {
      "inputs": [
        {
          "internalType": "address",
          "name": "",
          "type": "address"
        }
      ],
      "name": "vault",
      "outputs": [
        {
          "internalType": "address",
          "name": "user",
          "type": "address"
        },
        {
          "internalType": "address",
          "name": "insurance",
          "type": "address"
        },
        {
          "internalType": "address",
          "name": "operator",
          "type": "address"
        },
        {
          "internalType": "uint256",
          "name": "balance",
          "type": "uint256"
        }
      ],
      "stateMutability": "view",
      "type": "function"
    },
    {
      "inputs": [],
      "name": "withdrawAll",
      "outputs": [],
      "stateMutability": "nonpayable",
      "type": "function"
    },
    {
      "stateMutability": "payable",
      "type": "receive"
    }
  ],
  "bytecode": "0x60806040523480156200001157600080fd5b506200001f6000336200002a565b6002600455620000da565b6200003682826200003a565b5050565b6000828152602081815260408083206001600160a01b038516845290915290205460ff1662000036576000828152602081815260408083206001600160a01b03851684529091529020805460ff19166001179055620000963390565b6001600160a01b0316816001600160a01b0316837f2f8788117e7eff1d82e926ec794901d17c78024a50270940304540a733656f0d60405160405180910390a45050565b611f7380620000ea6000396000f3fe6080604052600436106101395760003560e01c8063853828b6116100ab578063d0549b851161006f578063d0549b851461052f578063d547741f14610545578063d7b7142314610565578063e654895514610585578063e841dc7f146105a5578063f815c03d146105c557600080fd5b8063853828b6146104a557806391d14854146104ba578063996e31d8146104da578063a217fddf146104fa578063ceb68c231461050f57600080fd5b80631785f53c116100fd5780631785f53c146103a0578063248a9ca3146103c05780632f2ff15d146103f057806336568abe146104105780633a1c1b6e14610430578063704802751461048557600080fd5b806301ffc9a71461023f5780630eb9af38146102745780630f9963381461034157806312065fe014610363578063164494c41461038057600080fd5b3661023a57336000908152600160205260409020546001600160a01b03166101c65760405162461bcd60e51b815260206004820152603560248201527f726563656976653a206d73672e73656e646572206973206e6f742072656769736044820152743a32b932b2103bb4ba34103a3432903b30bab63a1760591b60648201526084015b60405180910390fd5b33600090815260016020526040812060030180543492906101e8908490611a6f565b909155505033600081815260016020908152604091829020600301548251348152918201527f90890809c654f11d6e72a28fa60149770a0d11ec6c92319d6ceb2bb0a4ea1a15910160405180910390a2005b600080fd5b34801561024b57600080fd5b5061025f61025a366004611a87565b61064e565b60405190151581526020015b60405180910390f35b34801561028057600080fd5b5061030161028f366004611acd565b60408051608080820183526000808352602080840182905283850182905260609384018290526001600160a01b03958616825260018082529185902085519384018652805487168452918201548616908301526002810154909416928101929092526003909201549181019190915290565b6040805182516001600160a01b0390811682526020808501518216908301528383015116918101919091526060918201519181019190915260800161026b565b34801561034d57600080fd5b5061036161035c366004611ae8565b610685565b005b34801561036f57600080fd5b50475b60405190815260200161026b565b34801561038c57600080fd5b5061036161039b366004611b2b565b6107a1565b3480156103ac57600080fd5b506103616103bb366004611acd565b610aa6565b3480156103cc57600080fd5b506103726103db366004611b55565b60009081526020819052604090206001015490565b3480156103fc57600080fd5b5061036161040b366004611b6e565b610ac0565b34801561041c57600080fd5b5061036161042b366004611b6e565b610aea565b34801561043c57600080fd5b5061045061044b366004611b2b565b610b64565b604080516001600160a01b0396871681529590941660208601529284019190915215156060830152608082015260a00161026b565b34801561049157600080fd5b506103616104a0366004611acd565b610bc2565b3480156104b157600080fd5b50610361610bd8565b3480156104c657600080fd5b5061025f6104d5366004611b6e565b610c11565b3480156104e657600080fd5b506103616104f5366004611b2b565b610c3a565b34801561050657600080fd5b50610372600081565b34801561051b57600080fd5b5061036161052a366004611acd565b610e33565b34801561053b57600080fd5b5061037260045481565b34801561055157600080fd5b50610361610560366004611b6e565b610f04565b34801561057157600080fd5b50610361610580366004611b9a565b610f29565b34801561059157600080fd5b506103616105a0366004611b2b565b6110a4565b3480156105b157600080fd5b506103616105c0366004611b9a565b6113b8565b3480156105d157600080fd5b506106196105e0366004611acd565b600160208190526000918252604090912080549181015460028201546003909201546001600160a01b0393841693918216929091169084565b60405161026b94939291906001600160a01b039485168152928416602084015292166040820152606081019190915260800190565b60006001600160e01b03198216637965db0b60e01b148061067f57506301ffc9a760e01b6001600160e01b03198316145b92915050565b60006106908161152c565b6001600160a01b0384811660009081526001602052604090205416156107165760405162461bcd60e51b815260206004820152603560248201527f6372656174655661756c743a207573657220697320616c72656164792072656760448201527434b9ba32b932b21034b7103a3432903b30bab63a1760591b60648201526084016101bd565b50604080516080810182526001600160a01b03948516808252938516602080830191825293861682840190815260006060840181815296815260019586905293909320915182549087166001600160a01b0319918216178355905193820180549487169482169490941790935590516002820180549190951692169190911790925551600390910155565b6001600160a01b038083166000908152600160205260409020548391166107da5760405162461bcd60e51b81526004016101bd90611bd6565b6001600160a01b038181166000908152600160205260409020541633148061081f57506001600160a01b03818116600090815260016020819052604090912001541633145b8061084657506001600160a01b038181166000908152600160205260409020600201541633145b6108625760405162461bcd60e51b81526004016101bd90611c28565b6001600160a01b03831660009081526002602052604090205483908390811061089d5760405162461bcd60e51b81526004016101bd90611c7b565b6001600160a01b0385166000908152600260205260409020805486918691829081106108cb576108cb611cb2565b600091825260209091206003600590920201015460ff16156108ff5760405162461bcd60e51b81526004016101bd90611cc8565b6001600160a01b038716600090815260036020908152604080832089845282528083203384529091529020548790879060ff161561094f5760405162461bcd60e51b81526004016101bd90611d0b565b6001600160a01b038916600090815260026020526040902080548a91908a90811061097c5761097c611cb2565b9060005260206000209060050201600201548060016000846001600160a01b03166001600160a01b031681526020019081526020016000206003015410156109d65760405162461bcd60e51b81526004016101bd90611d50565b6109e08b8b611539565b6001600160a01b038b16600090815260026020526040812080548c908110610a0a57610a0a611cb2565b9060005260206000209060050201905060045481600401541015610a405760405162461bcd60e51b81526004016101bd90611dad565b610a4a8c8c6115c4565b600181015460028201546040519081526001600160a01b03918216918e16908d907fdd7e915530024b6c7d77256faacc0cd59b86685c257e9a455642da6afc51608b9060200160405180910390a4505050505050505050505050565b6000610ab18161152c565b610abc600083610f04565b5050565b600082815260208190526040902060010154610adb8161152c565b610ae583836116b8565b505050565b6001600160a01b0381163314610b5a5760405162461bcd60e51b815260206004820152602f60248201527f416363657373436f6e74726f6c3a2063616e206f6e6c792072656e6f756e636560448201526e103937b632b9903337b91039b2b63360891b60648201526084016101bd565b610abc828261173c565b60026020528160005260406000208181548110610b8057600080fd5b6000918252602090912060059091020180546001820154600283015460038401546004909401546001600160a01b0393841696509290911693509160ff169085565b6000610bcd8161152c565b610abc600083610ac0565b6000610be38161152c565b604051339081904780156108fc02916000818181858888f19350505050158015610ae5573d6000803e3d6000fd5b6000918252602082815260408084206001600160a01b0393909316845291905290205460ff1690565b6001600160a01b03808316600090815260016020526040902054839116610c735760405162461bcd60e51b81526004016101bd90611bd6565b6001600160a01b0381811660009081526001602052604090205416331480610cb857506001600160a01b03818116600090815260016020819052604090912001541633145b80610cdf57506001600160a01b038181166000908152600160205260409020600201541633145b610cfb5760405162461bcd60e51b81526004016101bd90611c28565b6001600160a01b038316600090815260026020526040902054839083908110610d365760405162461bcd60e51b81526004016101bd90611c7b565b6001600160a01b038516600090815260026020526040902080548691869182908110610d6457610d64611cb2565b600091825260209091206003600590920201015460ff1615610d985760405162461bcd60e51b81526004016101bd90611cc8565b6001600160a01b038716600090815260036020908152604080832089845282528083203384529091529020548790879060ff1615610de85760405162461bcd60e51b81526004016101bd90611d0b565b610df28989611539565b6040516001600160a01b038a169089907f84d5aa18a688d62840f3b6e75813e321c4d3f084faa815953c3549641887b2d490600090a3505050505050505050565b6000610e3e8161152c565b6001600160a01b0382811660009081526001602052604090205416610ebf5760405162461bcd60e51b815260206004820152603160248201527f72656d6f76655661756c743a2075736572206973206e6f7420726567697374656044820152703932b21034b7103a3432903b30bab63a1760791b60648201526084016101bd565b506001600160a01b03166000908152600160208190526040822080546001600160a01b0319908116825591810180548316905560028101805490921690915560030155565b600082815260208190526040902060010154610f1f8161152c565b610ae5838361173c565b6001600160a01b03808416600090815260016020526040902054849116610f625760405162461bcd60e51b81526004016101bd90611bd6565b6001600160a01b0381811660009081526001602052604090205416331480610fa757506001600160a01b03818116600090815260016020819052604090912001541633145b80610fce57506001600160a01b038181166000908152600160205260409020600201541633145b610fea5760405162461bcd60e51b81526004016101bd90611c28565b6001600160a01b038416600090815260016020526040902060030154849083908111156110295760405162461bcd60e51b81526004016101bd90611d50565b6001600160a01b03861660009081526002602052604090205461104d8787876117a1565b856001600160a01b0316876001600160a01b0316827f6603e8f2d6cf4c4ba1ec26fb0696a1cc54a2b88c23aeddf81792c0f3028eb9088860405161109391815260200190565b60405180910390a450505050505050565b6001600160a01b038083166000908152600160205260409020548391166110dd5760405162461bcd60e51b81526004016101bd90611bd6565b6001600160a01b038181166000908152600160205260409020541633148061112257506001600160a01b03818116600090815260016020819052604090912001541633145b8061114957506001600160a01b038181166000908152600160205260409020600201541633145b6111655760405162461bcd60e51b81526004016101bd90611c28565b6001600160a01b0383166000908152600260205260409020548390839081106111a05760405162461bcd60e51b81526004016101bd90611c7b565b6001600160a01b0385166000908152600260205260409020805486918691829081106111ce576111ce611cb2565b600091825260209091206003600590920201015460ff16156112025760405162461bcd60e51b81526004016101bd90611cc8565b6001600160a01b038716600090815260026020526040902080548891908890811061122f5761122f611cb2565b9060005260206000209060050201600201548060016000846001600160a01b03166001600160a01b031681526020019081526020016000206003015410156112895760405162461bcd60e51b81526004016101bd90611d50565b6004546001600160a01b038a16600090815260026020526040902080548a9081106112b6576112b6611cb2565b90600052602060002090600502016004015410156112e65760405162461bcd60e51b81526004016101bd90611dad565b6112f089896115c4565b6001600160a01b038916600090815260026020526040902080548990811061131a5761131a611cb2565b60009182526020808320600160059093020191909101546001600160a01b038c811680855260029093526040909320805493909116928b917f3ad297d1735dde19cd5db3078737e350c924d6c7aeb2468877118c3e24c7567f918390811061138457611384611cb2565b9060005260206000209060050201600201546040516113a591815260200190565b60405180910390a4505050505050505050565b6001600160a01b038084166000908152600160205260409020548491166113f15760405162461bcd60e51b81526004016101bd90611bd6565b6001600160a01b038181166000908152600160205260409020541633148061143657506001600160a01b03818116600090815260016020819052604090912001541633145b8061145d57506001600160a01b038181166000908152600160205260409020600201541633145b6114795760405162461bcd60e51b81526004016101bd90611c28565b6001600160a01b038416600090815260016020526040902060030154849083908111156114b85760405162461bcd60e51b81526004016101bd90611d50565b6001600160a01b0386166000908152600260205260409020546114dc8787876117a1565b6114e68782611539565b856001600160a01b0316876001600160a01b0316827fa086f94f4d7f7953c9fb6c47cb6a136c1cc7d1d8e005a2333faa05b7c11894508860405161109391815260200190565b6115368133611852565b50565b6001600160a01b03821660009081526002602052604090208054600191908390811061156757611567611cb2565b906000526020600020906005020160040160008282546115879190611a6f565b90915550506001600160a01b039091166000908152600360209081526040808320938352928152828220338352905220805460ff19166001179055565b6001600160a01b03821660009081526002602052604081208054839081106115ee576115ee611cb2565b60009182526020808320600160059093020191909101546001600160a01b0386811684526002909252604083208054929091169350908490811061163457611634611cb2565b9060005260206000209060050201600201549050816001600160a01b03166108fc829081150290604051600060405180830381858888f19350505050158015611681573d6000803e3d6000fd5b506001600160a01b038416600090815260016020526040812060030180548392906116ad908490611e02565b909155505050505050565b6116c28282610c11565b610abc576000828152602081815260408083206001600160a01b03851684529091529020805460ff191660011790556116f83390565b6001600160a01b0316816001600160a01b0316837f2f8788117e7eff1d82e926ec794901d17c78024a50270940304540a733656f0d60405160405180910390a45050565b6117468282610c11565b15610abc576000828152602081815260408083206001600160a01b0385168085529252808320805460ff1916905551339285917ff6391f5c32d9c69d2a47ea670b442974b53935d1edc7fd64eb21e047a839171b9190a45050565b6001600160a01b039283166000818152600260208181526040808420815160a0810183529586529688168583019081529085019586526060850184815260808601858152885460018082018b55998752939095209551600590930290950180546001600160a01b0319908116938a16939093178155905196810180549092169690971695909517909455915192840192909255905160038301805460ff191691151591909117905551600490910155565b61185c8282610c11565b610abc57611874816001600160a01b031660146118b6565b61187f8360206118b6565b604051602001611890929190611e49565b60408051601f198184030181529082905262461bcd60e51b82526101bd91600401611ebe565b606060006118c5836002611ef1565b6118d0906002611a6f565b67ffffffffffffffff8111156118e8576118e8611f10565b6040519080825280601f01601f191660200182016040528015611912576020820181803683370190505b509050600360fc1b8160008151811061192d5761192d611cb2565b60200101906001600160f81b031916908160001a905350600f60fb1b8160018151811061195c5761195c611cb2565b60200101906001600160f81b031916908160001a9053506000611980846002611ef1565b61198b906001611a6f565b90505b6001811115611a03576f181899199a1a9b1b9c1cb0b131b232b360811b85600f16601081106119bf576119bf611cb2565b1a60f81b8282815181106119d5576119d5611cb2565b60200101906001600160f81b031916908160001a90535060049490941c936119fc81611f26565b905061198e565b508315611a525760405162461bcd60e51b815260206004820181905260248201527f537472696e67733a20686578206c656e67746820696e73756666696369656e7460448201526064016101bd565b9392505050565b634e487b7160e01b600052601160045260246000fd5b60008219821115611a8257611a82611a59565b500190565b600060208284031215611a9957600080fd5b81356001600160e01b031981168114611a5257600080fd5b80356001600160a01b0381168114611ac857600080fd5b919050565b600060208284031215611adf57600080fd5b611a5282611ab1565b600080600060608486031215611afd57600080fd5b611b0684611ab1565b9250611b1460208501611ab1565b9150611b2260408501611ab1565b90509250925092565b60008060408385031215611b3e57600080fd5b611b4783611ab1565b946020939093013593505050565b600060208284031215611b6757600080fd5b5035919050565b60008060408385031215611b8157600080fd5b82359150611b9160208401611ab1565b90509250929050565b600080600060608486031215611baf57600080fd5b611bb884611ab1565b9250611bc660208501611ab1565b9150604084013590509250925092565b60208082526032908201527f69735661756c744f776e65723a2075736572206973206e6f742072656769737460408201527132b932b21034b7103a3432903b30bab63a1760711b606082015260800190565b60208082526033908201527f69735661756c744f776e65723a206d73672e73656e646572206973206e6f742060408201527237bbb732b91037b3103a3432903b30bab63a1760691b606082015260800190565b6020808252601d908201527f6973457869737454783a20747820646f6573206e6f742065786973742e000000604082015260600190565b634e487b7160e01b600052603260045260246000fd5b60208082526023908201527f69734e6f7445786563757465643a20747820616c72656164792065786563757460408201526232b21760e91b606082015260800190565b60208082526025908201527f69734e6f74436f6e6669726d65643a20747820616c726561647920636f6e66696040820152643936b2b21760d91b606082015260800190565b60208082526038908201527f6973456e6f75676842616c616e63653a207468657265206973206e6f7420656e60408201527f6f75676820746f6b656e20696e20746865207661756c742e0000000000000000606082015260800190565b60208082526035908201527f6578656375746557697468647261773a20646f6573206e6f74206d656574207260408201527432b8bab4b932b21031b7b73334b936b0ba34b7b71760591b606082015260800190565b600082821015611e1457611e14611a59565b500390565b60005b83811015611e34578181015183820152602001611e1c565b83811115611e43576000848401525b50505050565b7f416363657373436f6e74726f6c3a206163636f756e7420000000000000000000815260008351611e81816017850160208801611e19565b7001034b99036b4b9b9b4b733903937b6329607d1b6017918401918201528351611eb2816028840160208801611e19565b01602801949350505050565b6020815260008251806020840152611edd816040850160208701611e19565b601f01601f19169190910160400192915050565b6000816000190483118215151615611f0b57611f0b611a59565b500290565b634e487b7160e01b600052604160045260246000fd5b600081611f3557611f35611a59565b50600019019056fea26469706673582212207fd20c8f69fb8b0c06fd0a4eb649675d654a5c6ca98cf0c7ef29a54af9eba82864736f6c63430008090033",
  "linkReferences": {},
  "deployedLinkReferences": {}
}