{
  "_format": "hh-sol-artifact-1",
  "contractName": "MuVault",
  "sourceName": "contracts/MuVault.sol",
  "abi": [
    {
      "inputs": [
        {
          "internalType": "address",
          "name": "user",
          "type": "address"
        },
        {
          "internalType": "address",
          "name": "insurance",
          "type": "address"
        },
        {
          "internalType": "address",
          "name": "operator",
          "type": "address"
        }
      ],
      "stateMutability": "nonpayable",
      "type": "constructor"
    },
    {
      "anonymous": false,
      "inputs": [
        {
          "indexed": true,
          "internalType": "address",
          "name": "from",
          "type": "address"
        },
        {
          "indexed": true,
          "internalType": "address",
          "name": "to",
          "type": "address"
        }
      ],
      "name": "ChangeUser",
      "type": "event"
    },
    {
      "anonymous": false,
      "inputs": [
        {
          "indexed": true,
          "internalType": "uint256",
          "name": "txIndex",
          "type": "uint256"
        },
        {
          "indexed": true,
          "internalType": "address",
          "name": "to",
          "type": "address"
        }
      ],
      "name": "ConfirmAndExecuteCU",
      "type": "event"
    },
    {
      "anonymous": false,
      "inputs": [
        {
          "indexed": true,
          "internalType": "uint256",
          "name": "txIndex",
          "type": "uint256"
        },
        {
          "indexed": true,
          "internalType": "address",
          "name": "to",
          "type": "address"
        },
        {
          "indexed": false,
          "internalType": "uint256",
          "name": "value",
          "type": "uint256"
        }
      ],
      "name": "ConfirmAndExecuteWD",
      "type": "event"
    },
    {
      "anonymous": false,
      "inputs": [
        {
          "indexed": true,
          "internalType": "uint256",
          "name": "txIndex",
          "type": "uint256"
        }
      ],
      "name": "ConfirmWD",
      "type": "event"
    },
    {
      "anonymous": false,
      "inputs": [
        {
          "indexed": true,
          "internalType": "address",
          "name": "from",
          "type": "address"
        },
        {
          "indexed": false,
          "internalType": "uint256",
          "name": "amount",
          "type": "uint256"
        },
        {
          "indexed": false,
          "internalType": "uint256",
          "name": "balance",
          "type": "uint256"
        }
      ],
      "name": "Deposit",
      "type": "event"
    },
    {
      "anonymous": false,
      "inputs": [
        {
          "indexed": true,
          "internalType": "uint256",
          "name": "txIndex",
          "type": "uint256"
        },
        {
          "indexed": true,
          "internalType": "address",
          "name": "to",
          "type": "address"
        },
        {
          "indexed": false,
          "internalType": "uint256",
          "name": "value",
          "type": "uint256"
        }
      ],
      "name": "ExecuteWD",
      "type": "event"
    },
    {
      "anonymous": false,
      "inputs": [
        {
          "indexed": true,
          "internalType": "uint256",
          "name": "txIndex",
          "type": "uint256"
        },
        {
          "indexed": true,
          "internalType": "address",
          "name": "to",
          "type": "address"
        }
      ],
      "name": "RequestAndConfirmCU",
      "type": "event"
    },
    {
      "anonymous": false,
      "inputs": [
        {
          "indexed": true,
          "internalType": "uint256",
          "name": "txIndex",
          "type": "uint256"
        },
        {
          "indexed": true,
          "internalType": "address",
          "name": "to",
          "type": "address"
        },
        {
          "indexed": false,
          "internalType": "uint256",
          "name": "value",
          "type": "uint256"
        }
      ],
      "name": "RequestAndConfirmWD",
      "type": "event"
    },
    {
      "anonymous": false,
      "inputs": [
        {
          "indexed": true,
          "internalType": "uint256",
          "name": "txIndex",
          "type": "uint256"
        },
        {
          "indexed": true,
          "internalType": "address",
          "name": "to",
          "type": "address"
        },
        {
          "indexed": false,
          "internalType": "uint256",
          "name": "value",
          "type": "uint256"
        }
      ],
      "name": "RequestWD",
      "type": "event"
    },
    {
      "anonymous": false,
      "inputs": [
        {
          "indexed": true,
          "internalType": "bytes32",
          "name": "role",
          "type": "bytes32"
        },
        {
          "indexed": true,
          "internalType": "bytes32",
          "name": "previousAdminRole",
          "type": "bytes32"
        },
        {
          "indexed": true,
          "internalType": "bytes32",
          "name": "newAdminRole",
          "type": "bytes32"
        }
      ],
      "name": "RoleAdminChanged",
      "type": "event"
    },
    {
      "anonymous": false,
      "inputs": [
        {
          "indexed": true,
          "internalType": "bytes32",
          "name": "role",
          "type": "bytes32"
        },
        {
          "indexed": true,
          "internalType": "address",
          "name": "account",
          "type": "address"
        },
        {
          "indexed": true,
          "internalType": "address",
          "name": "sender",
          "type": "address"
        }
      ],
      "name": "RoleGranted",
      "type": "event"
    },
    {
      "anonymous": false,
      "inputs": [
        {
          "indexed": true,
          "internalType": "bytes32",
          "name": "role",
          "type": "bytes32"
        },
        {
          "indexed": true,
          "internalType": "address",
          "name": "account",
          "type": "address"
        },
        {
          "indexed": true,
          "internalType": "address",
          "name": "sender",
          "type": "address"
        }
      ],
      "name": "RoleRevoked",
      "type": "event"
    },
    {
      "anonymous": false,
      "inputs": [
        {
          "indexed": true,
          "internalType": "address",
          "name": "to",
          "type": "address"
        },
        {
          "indexed": false,
          "internalType": "uint256",
          "name": "amount",
          "type": "uint256"
        },
        {
          "indexed": false,
          "internalType": "uint256",
          "name": "balance",
          "type": "uint256"
        }
      ],
      "name": "Withdraw",
      "type": "event"
    },
    {
      "inputs": [],
      "name": "DEFAULT_ADMIN_ROLE",
      "outputs": [
        {
          "internalType": "bytes32",
          "name": "",
          "type": "bytes32"
        }
      ],
      "stateMutability": "view",
      "type": "function"
    },
    {
      "inputs": [
        {
          "internalType": "address",
          "name": "account",
          "type": "address"
        }
      ],
      "name": "addAdmin",
      "outputs": [],
      "stateMutability": "nonpayable",
      "type": "function"
    },
    {
      "inputs": [
        {
          "internalType": "uint256",
          "name": "txIndex",
          "type": "uint256"
        }
      ],
      "name": "confirmAndExecuteChangeUser",
      "outputs": [],
      "stateMutability": "nonpayable",
      "type": "function"
    },
    {
      "inputs": [
        {
          "internalType": "uint256",
          "name": "txIndex",
          "type": "uint256"
        }
      ],
      "name": "confirmAndExecuteWithdraw",
      "outputs": [],
      "stateMutability": "nonpayable",
      "type": "function"
    },
    {
      "inputs": [
        {
          "internalType": "uint256",
          "name": "txIndex",
          "type": "uint256"
        }
      ],
      "name": "confirmWithdraw",
      "outputs": [],
      "stateMutability": "nonpayable",
      "type": "function"
    },
    {
      "inputs": [
        {
          "internalType": "address",
          "name": "user",
          "type": "address"
        },
        {
          "internalType": "address",
          "name": "insurance",
          "type": "address"
        },
        {
          "internalType": "address",
          "name": "operator",
          "type": "address"
        }
      ],
      "name": "createVault",
      "outputs": [],
      "stateMutability": "nonpayable",
      "type": "function"
    },
    {
      "inputs": [
        {
          "internalType": "uint256",
          "name": "txIndex",
          "type": "uint256"
        }
      ],
      "name": "executeWithdraw",
      "outputs": [],
      "stateMutability": "nonpayable",
      "type": "function"
    },
    {
      "inputs": [],
      "name": "getBalance",
      "outputs": [
        {
          "internalType": "uint256",
          "name": "",
          "type": "uint256"
        }
      ],
      "stateMutability": "view",
      "type": "function"
    },
    {
      "inputs": [
        {
          "internalType": "bytes32",
          "name": "role",
          "type": "bytes32"
        }
      ],
      "name": "getRoleAdmin",
      "outputs": [
        {
          "internalType": "bytes32",
          "name": "",
          "type": "bytes32"
        }
      ],
      "stateMutability": "view",
      "type": "function"
    },
    {
      "inputs": [],
      "name": "getVault",
      "outputs": [
        {
          "components": [
            {
              "internalType": "address",
              "name": "user",
              "type": "address"
            },
            {
              "internalType": "address",
              "name": "insurance",
              "type": "address"
            },
            {
              "internalType": "address",
              "name": "operator",
              "type": "address"
            },
            {
              "internalType": "uint256",
              "name": "balance",
              "type": "uint256"
            }
          ],
          "internalType": "struct MuVault.Vault",
          "name": "",
          "type": "tuple"
        }
      ],
      "stateMutability": "view",
      "type": "function"
    },
    {
      "inputs": [
        {
          "internalType": "bytes32",
          "name": "role",
          "type": "bytes32"
        },
        {
          "internalType": "address",
          "name": "account",
          "type": "address"
        }
      ],
      "name": "grantRole",
      "outputs": [],
      "stateMutability": "nonpayable",
      "type": "function"
    },
    {
      "inputs": [
        {
          "internalType": "bytes32",
          "name": "role",
          "type": "bytes32"
        },
        {
          "internalType": "address",
          "name": "account",
          "type": "address"
        }
      ],
      "name": "hasRole",
      "outputs": [
        {
          "internalType": "bool",
          "name": "",
          "type": "bool"
        }
      ],
      "stateMutability": "view",
      "type": "function"
    },
    {
      "inputs": [],
      "name": "numConfirmationsRequired",
      "outputs": [
        {
          "internalType": "uint256",
          "name": "",
          "type": "uint256"
        }
      ],
      "stateMutability": "view",
      "type": "function"
    },
    {
      "inputs": [
        {
          "internalType": "address",
          "name": "account",
          "type": "address"
        }
      ],
      "name": "removeAdmin",
      "outputs": [],
      "stateMutability": "nonpayable",
      "type": "function"
    },
    {
      "inputs": [
        {
          "internalType": "bytes32",
          "name": "role",
          "type": "bytes32"
        },
        {
          "internalType": "address",
          "name": "account",
          "type": "address"
        }
      ],
      "name": "renounceRole",
      "outputs": [],
      "stateMutability": "nonpayable",
      "type": "function"
    },
    {
      "inputs": [
        {
          "internalType": "address",
          "name": "to",
          "type": "address"
        }
      ],
      "name": "requestAndConfirmChangeUser",
      "outputs": [],
      "stateMutability": "nonpayable",
      "type": "function"
    },
    {
      "inputs": [
        {
          "internalType": "address",
          "name": "to",
          "type": "address"
        },
        {
          "internalType": "uint256",
          "name": "value",
          "type": "uint256"
        }
      ],
      "name": "requestAndConfirmWithdraw",
      "outputs": [],
      "stateMutability": "nonpayable",
      "type": "function"
    },
    {
      "inputs": [
        {
          "internalType": "address",
          "name": "to",
          "type": "address"
        },
        {
          "internalType": "uint256",
          "name": "value",
          "type": "uint256"
        }
      ],
      "name": "requestWithdraw",
      "outputs": [],
      "stateMutability": "nonpayable",
      "type": "function"
    },
    {
      "inputs": [
        {
          "internalType": "bytes32",
          "name": "role",
          "type": "bytes32"
        },
        {
          "internalType": "address",
          "name": "account",
          "type": "address"
        }
      ],
      "name": "revokeRole",
      "outputs": [],
      "stateMutability": "nonpayable",
      "type": "function"
    },
    {
      "inputs": [
        {
          "internalType": "bytes4",
          "name": "interfaceId",
          "type": "bytes4"
        }
      ],
      "name": "supportsInterface",
      "outputs": [
        {
          "internalType": "bool",
          "name": "",
          "type": "bool"
        }
      ],
      "stateMutability": "view",
      "type": "function"
    },
    {
      "inputs": [
        {
          "internalType": "uint256",
          "name": "",
          "type": "uint256"
        }
      ],
      "name": "txList",
      "outputs": [
        {
          "internalType": "address",
          "name": "to",
          "type": "address"
        },
        {
          "internalType": "uint256",
          "name": "value",
          "type": "uint256"
        },
        {
          "internalType": "bool",
          "name": "executed",
          "type": "bool"
        },
        {
          "internalType": "uint256",
          "name": "numConfirmations",
          "type": "uint256"
        }
      ],
      "stateMutability": "view",
      "type": "function"
    },
    {
      "inputs": [],
      "name": "vault",
      "outputs": [
        {
          "internalType": "address",
          "name": "user",
          "type": "address"
        },
        {
          "internalType": "address",
          "name": "insurance",
          "type": "address"
        },
        {
          "internalType": "address",
          "name": "operator",
          "type": "address"
        },
        {
          "internalType": "uint256",
          "name": "balance",
          "type": "uint256"
        }
      ],
      "stateMutability": "view",
      "type": "function"
    },
    {
      "inputs": [],
      "name": "withdrawAll",
      "outputs": [],
      "stateMutability": "nonpayable",
      "type": "function"
    },
    {
      "stateMutability": "payable",
      "type": "receive"
    }
  ],
  "bytecode": "0x60806040523480156200001157600080fd5b50604051620023bb380380620023bb83398101604081905262000034916200017c565b62000041600033620000af565b60026007819055604080516080810182526001600160a01b03958616808252948616602082018190529390951690850181905260006060909501859052600180546001600160a01b0319908116909517905581548416909217905560038054909216179055600455620001c6565b620000bb8282620000bf565b5050565b6000828152602081815260408083206001600160a01b038516845290915290205460ff16620000bb576000828152602081815260408083206001600160a01b03851684529091529020805460ff191660011790556200011b3390565b6001600160a01b0316816001600160a01b0316837f2f8788117e7eff1d82e926ec794901d17c78024a50270940304540a733656f0d60405160405180910390a45050565b80516001600160a01b03811681146200017757600080fd5b919050565b6000806000606084860312156200019257600080fd5b6200019d846200015f565b9250620001ad602085016200015f565b9150620001bd604085016200015f565b90509250925092565b6121e580620001d66000396000f3fe6080604052600436106101445760003560e01c806336568abe116100b6578063a217fddf1161006f578063a217fddf14610521578063d0549b8514610536578063d547741f1461054c578063da0f57d01461056c578063e68b1b491461058c578063fbfa77cf146105ac57600080fd5b806336568abe146103dd578063397a1b28146103fd578063704802751461041d578063853828b61461043d5780638d928af81461045257806391d148541461050157600080fd5b80631785f53c116101085780631785f53c1461030d5780632104ebf11461032d57806321c62bfe1461034d578063248a9ca31461036d5780632f2ff15d1461039d5780632f5bcf39146103bd57600080fd5b806301ffc9a714610229578063048715ee1461025e5780630ee9ec7e146102805780630f996338146102d057806312065fe0146102f057600080fd5b36610224576001546001600160a01b03166101c45760405162461bcd60e51b815260206004820152603560248201527f726563656976653a206d73672e73656e646572206973206e6f742072656769736044820152743a32b932b2103bb4ba34103a3432903b30bab63a1760591b60648201526084015b60405180910390fd5b34600160030160008282546101d99190611d72565b909155505060045460405133917f90890809c654f11d6e72a28fa60149770a0d11ec6c92319d6ceb2bb0a4ea1a159161021a91348252602082015260400190565b60405180910390a2005b600080fd5b34801561023557600080fd5b50610249610244366004611d8a565b610612565b60405190151581526020015b60405180910390f35b34801561026a57600080fd5b5061027e610279366004611db4565b610649565b005b34801561028c57600080fd5b506102a061029b366004611db4565b6108b0565b604080516001600160a01b0390951685526020850193909352901515918301919091526060820152608001610255565b3480156102dc57600080fd5b5061027e6102eb366004611de9565b6108f7565b3480156102fc57600080fd5b50475b604051908152602001610255565b34801561031957600080fd5b5061027e610328366004611e2c565b6109e0565b34801561033957600080fd5b5061027e610348366004611db4565b6109fa565b34801561035957600080fd5b5061027e610368366004611e2c565b610c71565b34801561037957600080fd5b506102ff610388366004611db4565b60009081526020819052604090206001015490565b3480156103a957600080fd5b5061027e6103b8366004611e47565b610dc8565b3480156103c957600080fd5b5061027e6103d8366004611db4565b610df2565b3480156103e957600080fd5b5061027e6103f8366004611e47565b6110b7565b34801561040957600080fd5b5061027e610418366004611e73565b611131565b34801561042957600080fd5b5061027e610438366004611e2c565b61131c565b34801561044957600080fd5b5061027e611332565b34801561045e57600080fd5b506104c160408051608081018252600080825260208201819052918101829052606081019190915250604080516080810182526001546001600160a01b039081168252600254811660208301526003541691810191909152600454606082015290565b6040805182516001600160a01b03908116825260208085015182169083015283830151169181019190915260609182015191810191909152608001610255565b34801561050d57600080fd5b5061024961051c366004611e47565b611375565b34801561052d57600080fd5b506102ff600081565b34801561054257600080fd5b506102ff60075481565b34801561055857600080fd5b5061027e610567366004611e47565b61139e565b34801561057857600080fd5b5061027e610587366004611db4565b6113c3565b34801561059857600080fd5b5061027e6105a7366004611e73565b611520565b3480156105b857600080fd5b506001546002546003546004546105dd936001600160a01b0390811693811692169084565b60405161025594939291906001600160a01b039485168152928416602084015292166040820152606081019190915260800190565b60006001600160e01b03198216637965db0b60e01b148061064357506301ffc9a760e01b6001600160e01b03198316145b92915050565b6001546001600160a01b03166106715760405162461bcd60e51b81526004016101bb90611e9d565b6001546001600160a01b031633148061069457506002546001600160a01b031633145b806106a957506003546001600160a01b031633145b6106c55760405162461bcd60e51b81526004016101bb90611eef565b600554819081106106e85760405162461bcd60e51b81526004016101bb90611f42565b81600581815481106106fc576106fc611f79565b600091825260209091206002600490920201015460ff16156107305760405162461bcd60e51b81526004016101bb90611f8f565b6000838152600660209081526040808320338452909152902054839060ff161561076c5760405162461bcd60e51b81526004016101bb90611fd2565b6107758461171f565b60006005858154811061078a5761078a611f79565b90600052602060002090600402019050600754816003015410156108205760405162461bcd60e51b815260206004820152604160248201527f636f6e6669726d416e64457865637574654368616e6765557365723a20646f6560448201527f73206e6f74206d65657420726571756972656420636f6e6669726d6174696f6e6064820152601760f91b608482015260a4016101bb565b6001546001600160a01b03166108358661177f565b81546040516001600160a01b03918216918316907fbcaec606b18c8f10dc37dfa919dc9d7b756728b72c34bd473adbedd14d7f092090600090a381546040516001600160a01b039091169087907f31e7e15b4b3e999363befcdb19c02e33c6e5b22393c1631d55edcb4a6bbca1f290600090a3505050505050565b600581815481106108c057600080fd5b600091825260209091206004909102018054600182015460028301546003909301546001600160a01b0390921693509160ff169084565b600061090281611802565b6001546001600160a01b0316156109795760405162461bcd60e51b815260206004820152603560248201527f6372656174655661756c743a207573657220697320616c72656164792072656760448201527434b9ba32b932b21034b7103a3432903b30bab63a1760591b60648201526084016101bb565b50604080516080810182526001600160a01b03948516808252938516602082018190529290941690840181905260006060909401849052600180546001600160a01b0319908116909417905560028054841690921790915560038054909216179055600455565b60006109eb81611802565b6109f660008361139e565b5050565b6001546001600160a01b0316610a225760405162461bcd60e51b81526004016101bb90611e9d565b6001546001600160a01b0316331480610a4557506002546001600160a01b031633145b80610a5a57506003546001600160a01b031633145b610a765760405162461bcd60e51b81526004016101bb90611eef565b60055481908110610a995760405162461bcd60e51b81526004016101bb90611f42565b8160058181548110610aad57610aad611f79565b600091825260209091206002600490920201015460ff1615610ae15760405162461bcd60e51b81526004016101bb90611f8f565b60058381548110610af457610af4611f79565b906000526020600020906004020160010154806001600301541015610b2b5760405162461bcd60e51b81526004016101bb90612017565b600060058581548110610b4057610b40611f79565b9060005260206000209060040201905060075481600301541015610bc45760405162461bcd60e51b815260206004820152603560248201527f6578656375746557697468647261773a20646f6573206e6f74206d656574207260448201527432b8bab4b932b21031b7b73334b936b0ba34b7b71760591b60648201526084016101bb565b610bcd8561180f565b805460018201546004546040516001600160a01b03909316927ff279e6a1f5e320cca91135676d9cb6e44ca8a08c0b88342bcdb1144f6511b56892610c1a92908252602082015260400190565b60405180910390a2805460018201546040519081526001600160a01b039091169086907f6994c85d7f44242ecd678e09fbe2d6782a9b8b2857dbde40d56557f0c9a327d29060200160405180910390a35050505050565b6001546001600160a01b0316610c995760405162461bcd60e51b81526004016101bb90611e9d565b6001546001600160a01b0316331480610cbc57506002546001600160a01b031633145b80610cd157506003546001600160a01b031633145b610ced5760405162461bcd60e51b81526004016101bb90611eef565b6001600160a01b038116610d775760405162461bcd60e51b815260206004820152604560248201527f72657175657374416e64436f6e6669726d4368616e6765557365723a2057616c60448201527f6c6574206164647265737320746f206368616e67652063616e6e6f74206265206064820152643d32b9379760d91b608482015260a4016101bb565b600554610d85826000611972565b610d8e8161171f565b6040516001600160a01b0383169082907f664b792daaef005f70cee6cb2665afd11cf1a753981ff741d878fc8f99b566e590600090a35050565b600082815260208190526040902060010154610de381611802565b610ded8383611a6c565b505050565b6001546001600160a01b0316610e1a5760405162461bcd60e51b81526004016101bb90611e9d565b6001546001600160a01b0316331480610e3d57506002546001600160a01b031633145b80610e5257506003546001600160a01b031633145b610e6e5760405162461bcd60e51b81526004016101bb90611eef565b60055481908110610e915760405162461bcd60e51b81526004016101bb90611f42565b8160058181548110610ea557610ea5611f79565b600091825260209091206002600490920201015460ff1615610ed95760405162461bcd60e51b81526004016101bb90611f8f565b6000838152600660209081526040808320338452909152902054839060ff1615610f155760405162461bcd60e51b81526004016101bb90611fd2565b60058481548110610f2857610f28611f79565b906000526020600020906004020160010154806001600301541015610f5f5760405162461bcd60e51b81526004016101bb90612017565b610f688561171f565b600060058681548110610f7d57610f7d611f79565b90600052602060002090600402019050600754816003015410156110095760405162461bcd60e51b815260206004820152603f60248201527f636f6e6669726d416e644578656375746557697468647261773a20646f65732060448201527f6e6f74206d65657420726571756972656420636f6e6669726d6174696f6e2e0060648201526084016101bb565b6110128661180f565b805460018201546004546040516001600160a01b03909316927ff279e6a1f5e320cca91135676d9cb6e44ca8a08c0b88342bcdb1144f6511b5689261105f92908252602082015260400190565b60405180910390a2805460018201546040519081526001600160a01b039091169087907feff6cfb8852c04e6f286080dcf3a79ac44bf214476226d781e757b94f904c1c19060200160405180910390a3505050505050565b6001600160a01b03811633146111275760405162461bcd60e51b815260206004820152602f60248201527f416363657373436f6e74726f6c3a2063616e206f6e6c792072656e6f756e636560448201526e103937b632b9903337b91039b2b63360891b60648201526084016101bb565b6109f68282611af0565b6001546001600160a01b03166111595760405162461bcd60e51b81526004016101bb90611e9d565b6001546001600160a01b031633148061117c57506002546001600160a01b031633145b8061119157506003546001600160a01b031633145b6111ad5760405162461bcd60e51b81526004016101bb90611eef565b808060016003015410156111d35760405162461bcd60e51b81526004016101bb90612017565b6001600160a01b03831661124f5760405162461bcd60e51b815260206004820152603760248201527f7265717565737457697468647261773a2057616c6c657420616464726573732060448201527f746f2073656e642063616e6e6f74206265207a65726f2e00000000000000000060648201526084016101bb565b600082116112c55760405162461bcd60e51b815260206004820152603c60248201527f7265717565737457697468647261773a2041207472616e7366657220616d6f7560448201527f6e74206f6620302063616e6e6f74206265207265717565737465642e0000000060648201526084016101bb565b6005546112d28484611972565b836001600160a01b0316817fe527d15c3935a5055d0fc7abc2c7cc6e9c865e847178e45f28a0686ca273cede8560405161130e91815260200190565b60405180910390a350505050565b600061132781611802565b6109f6600083610dc8565b600061133d81611802565b604051339081904780156108fc02916000818181858888f1935050505015801561136b573d6000803e3d6000fd5b5050600060045550565b6000918252602082815260408084206001600160a01b0393909316845291905290205460ff1690565b6000828152602081905260409020600101546113b981611802565b610ded8383611af0565b6001546001600160a01b03166113eb5760405162461bcd60e51b81526004016101bb90611e9d565b6001546001600160a01b031633148061140e57506002546001600160a01b031633145b8061142357506003546001600160a01b031633145b61143f5760405162461bcd60e51b81526004016101bb90611eef565b600554819081106114625760405162461bcd60e51b81526004016101bb90611f42565b816005818154811061147657611476611f79565b600091825260209091206002600490920201015460ff16156114aa5760405162461bcd60e51b81526004016101bb90611f8f565b6000838152600660209081526040808320338452909152902054839060ff16156114e65760405162461bcd60e51b81526004016101bb90611fd2565b6114ef8461171f565b60405184907f0eea5160b493dd27d24c5149b91ea1c82cd861b8197d9c26147c3b02ad0dcc0a90600090a250505050565b6001546001600160a01b03166115485760405162461bcd60e51b81526004016101bb90611e9d565b6001546001600160a01b031633148061156b57506002546001600160a01b031633145b8061158057506003546001600160a01b031633145b61159c5760405162461bcd60e51b81526004016101bb90611eef565b808060016003015410156115c25760405162461bcd60e51b81526004016101bb90612017565b6001600160a01b0383166116485760405162461bcd60e51b815260206004820152604160248201527f72657175657374416e64436f6e6669726d57697468647261773a2057616c6c6560448201527f74206164647265737320746f2073656e642063616e6e6f74206265207a65726f6064820152601760f91b608482015260a4016101bb565b600082116116cd5760405162461bcd60e51b815260206004820152604660248201527f72657175657374416e64436f6e6669726d57697468647261773a20412074726160448201527f6e7366657220616d6f756e74206f6620302063616e6e6f74206265207265717560648201526532b9ba32b21760d11b608482015260a4016101bb565b6005546116da8484611972565b6116e38161171f565b836001600160a01b0316817faf8e69e3dde5e68e122ffb1d0666a7b8bd6df299567c82e7f587f96e3b5f54c08560405161130e91815260200190565b60016005828154811061173457611734611f79565b906000526020600020906004020160030160008282546117549190611d72565b909155505060009081526006602090815260408083203384529091529020805460ff19166001179055565b60006005828154811061179457611794611f79565b6000918252602090912060049091020154600180546001600160a01b0319166001600160a01b039092169182178155600580549293509091849081106117dc576117dc611f79565b60009182526020909120600490910201600201805460ff19169115159190911790555050565b61180c8133611b55565b50565b60006005828154811061182457611824611f79565b60009182526020822060049091020154600580546001600160a01b039092169350908490811061185657611856611f79565b90600052602060002090600402016001015490506000826001600160a01b03168260405160006040518083038185875af1925050503d80600081146118b7576040519150601f19603f3d011682016040523d82523d6000602084013e6118bc565b606091505b50509050806119195760405162461bcd60e51b8152602060048201526024808201527f5f6578656375746557697468647261773a204661696c656420776974686472616044820152633bb0b61760e11b60648201526084016101bb565b816001600301600082825461192e9190612074565b9250508190555060016005858154811061194a5761194a611f79565b60009182526020909120600490910201600201805460ff191691151591909117905550505050565b604080516080810182526001600160a01b0393841681526020810192835260009181018281526060820183815260058054600181018255945291517f036b6384b5eca791c62761152d0c79bb0604c104a5fb6f4eb0703f3154bb3db0600490940293840180546001600160a01b031916919096161790945591517f036b6384b5eca791c62761152d0c79bb0604c104a5fb6f4eb0703f3154bb3db182015591517f036b6384b5eca791c62761152d0c79bb0604c104a5fb6f4eb0703f3154bb3db28301805460ff1916911515919091179055517f036b6384b5eca791c62761152d0c79bb0604c104a5fb6f4eb0703f3154bb3db390910155565b611a768282611375565b6109f6576000828152602081815260408083206001600160a01b03851684529091529020805460ff19166001179055611aac3390565b6001600160a01b0316816001600160a01b0316837f2f8788117e7eff1d82e926ec794901d17c78024a50270940304540a733656f0d60405160405180910390a45050565b611afa8282611375565b156109f6576000828152602081815260408083206001600160a01b0385168085529252808320805460ff1916905551339285917ff6391f5c32d9c69d2a47ea670b442974b53935d1edc7fd64eb21e047a839171b9190a45050565b611b5f8282611375565b6109f657611b77816001600160a01b03166014611bb9565b611b82836020611bb9565b604051602001611b939291906120bb565b60408051601f198184030181529082905262461bcd60e51b82526101bb91600401612130565b60606000611bc8836002612163565b611bd3906002611d72565b67ffffffffffffffff811115611beb57611beb612182565b6040519080825280601f01601f191660200182016040528015611c15576020820181803683370190505b509050600360fc1b81600081518110611c3057611c30611f79565b60200101906001600160f81b031916908160001a905350600f60fb1b81600181518110611c5f57611c5f611f79565b60200101906001600160f81b031916908160001a9053506000611c83846002612163565b611c8e906001611d72565b90505b6001811115611d06576f181899199a1a9b1b9c1cb0b131b232b360811b85600f1660108110611cc257611cc2611f79565b1a60f81b828281518110611cd857611cd8611f79565b60200101906001600160f81b031916908160001a90535060049490941c93611cff81612198565b9050611c91565b508315611d555760405162461bcd60e51b815260206004820181905260248201527f537472696e67733a20686578206c656e67746820696e73756666696369656e7460448201526064016101bb565b9392505050565b634e487b7160e01b600052601160045260246000fd5b60008219821115611d8557611d85611d5c565b500190565b600060208284031215611d9c57600080fd5b81356001600160e01b031981168114611d5557600080fd5b600060208284031215611dc657600080fd5b5035919050565b80356001600160a01b0381168114611de457600080fd5b919050565b600080600060608486031215611dfe57600080fd5b611e0784611dcd565b9250611e1560208501611dcd565b9150611e2360408501611dcd565b90509250925092565b600060208284031215611e3e57600080fd5b611d5582611dcd565b60008060408385031215611e5a57600080fd5b82359150611e6a60208401611dcd565b90509250929050565b60008060408385031215611e8657600080fd5b611e8f83611dcd565b946020939093013593505050565b60208082526032908201527f69735661756c744f776e65723a2075736572206973206e6f742072656769737460408201527132b932b21034b7103a3432903b30bab63a1760711b606082015260800190565b60208082526033908201527f69735661756c744f776e65723a206d73672e73656e646572206973206e6f742060408201527237bbb732b91037b3103a3432903b30bab63a1760691b606082015260800190565b6020808252601d908201527f6973457869737454783a20747820646f6573206e6f742065786973742e000000604082015260600190565b634e487b7160e01b600052603260045260246000fd5b60208082526023908201527f69734e6f7445786563757465643a20747820616c72656164792065786563757460408201526232b21760e91b606082015260800190565b60208082526025908201527f69734e6f74436f6e6669726d65643a20747820616c726561647920636f6e66696040820152643936b2b21760d91b606082015260800190565b60208082526038908201527f6973456e6f75676842616c616e63653a207468657265206973206e6f7420656e60408201527f6f75676820746f6b656e20696e20746865207661756c742e0000000000000000606082015260800190565b60008282101561208657612086611d5c565b500390565b60005b838110156120a657818101518382015260200161208e565b838111156120b5576000848401525b50505050565b7f416363657373436f6e74726f6c3a206163636f756e74200000000000000000008152600083516120f381601785016020880161208b565b7001034b99036b4b9b9b4b733903937b6329607d1b601791840191820152835161212481602884016020880161208b565b01602801949350505050565b602081526000825180602084015261214f81604085016020870161208b565b601f01601f19169190910160400192915050565b600081600019048311821515161561217d5761217d611d5c565b500290565b634e487b7160e01b600052604160045260246000fd5b6000816121a7576121a7611d5c565b50600019019056fea26469706673582212203bbb44a13a8d7e81e8d67bae939065d2baaecd0db68bd6c619793db7ebde114364736f6c63430008090033",
  "linkReferences": {},
  "deployedLinkReferences": {}
}